{"abi":[{"type":"constructor","inputs":[],"stateMutability":"nonpayable"},{"type":"receive","stateMutability":"payable"},{"type":"function","name":"ACTIVATION","inputs":[],"outputs":[{"name":"","type":"address","internalType":"address"}],"stateMutability":"view"},{"type":"function","name":"CALLBACK_GAS_LIMIT","inputs":[],"outputs":[{"name":"","type":"uint32","internalType":"uint32"}],"stateMutability":"view"},{"type":"function","name":"COMMUNITY_TREASURY","inputs":[],"outputs":[{"name":"","type":"address","internalType":"address"}],"stateMutability":"view"},{"type":"function","name":"DEPLOYER","inputs":[],"outputs":[{"name":"","type":"address","internalType":"address"}],"stateMutability":"view"},{"type":"function","name":"ENTROPY_CONTRACT","inputs":[],"outputs":[{"name":"","type":"address","internalType":"address"}],"stateMutability":"view"},{"type":"function","name":"ENTROPY_PROVIDER","inputs":[],"outputs":[{"name":"","type":"address","internalType":"address"}],"stateMutability":"view"},{"type":"function","name":"PARTNERS","inputs":[],"outputs":[{"name":"","type":"address","internalType":"address"}],"stateMutability":"view"},{"type":"function","name":"TEAM_LOCK","inputs":[],"outputs":[{"name":"","type":"address","internalType":"address"}],"stateMutability":"view"},{"type":"function","name":"_entropyCallback","inputs":[{"name":"_sequenceNumber","type":"uint64","internalType":"uint64"},{"name":"","type":"address","internalType":"address"},{"name":"randomNumber","type":"bytes32","internalType":"bytes32"}],"outputs":[],"stateMutability":"nonpayable"},{"type":"function","name":"_isTeamWallet","inputs":[{"name":"addr","type":"address","internalType":"address"}],"outputs":[{"name":"","type":"bool","internalType":"bool"}],"stateMutability":"pure"},{"type":"function","name":"claimPrize","inputs":[],"outputs":[],"stateMutability":"nonpayable"},{"type":"function","name":"cumTickets","inputs":[{"name":"","type":"uint256","internalType":"uint256"}],"outputs":[{"name":"","type":"uint256","internalType":"uint256"}],"stateMutability":"view"},{"type":"function","name":"drawDeadline","inputs":[],"outputs":[{"name":"","type":"uint256","internalType":"uint256"}],"stateMutability":"view"},{"type":"function","name":"entropy","inputs":[],"outputs":[{"name":"","type":"address","internalType":"contract IEntropy"}],"stateMutability":"view"},{"type":"function","name":"finalizeSnapshot","inputs":[],"outputs":[],"stateMutability":"nonpayable"},{"type":"function","name":"fulfillDraw","inputs":[],"outputs":[],"stateMutability":"nonpayable"},{"type":"function","name":"getDrawFee","inputs":[],"outputs":[{"name":"","type":"uint256","internalType":"uint256"}],"stateMutability":"pure"},{"type":"function","name":"getEntropy","inputs":[],"outputs":[{"name":"","type":"address","internalType":"address"}],"stateMutability":"pure"},{"type":"function","name":"getRaffleInfo","inputs":[],"outputs":[{"name":"_totalTickets","type":"uint256","internalType":"uint256"},{"name":"_walletCount","type":"uint256","internalType":"uint256"},{"name":"_snapshotBlock","type":"uint256","internalType":"uint256"},{"name":"_snapshotHash","type":"bytes32","internalType":"bytes32"},{"name":"_prizeNFT","type":"address","internalType":"address"},{"name":"_prizeTokenId","type":"uint256","internalType":"uint256"},{"name":"_prizeDepositor","type":"address","internalType":"address"},{"name":"_drawDeadline","type":"uint256","internalType":"uint256"}],"stateMutability":"view"},{"type":"function","name":"getRaffleState","inputs":[],"outputs":[{"name":"_state","type":"uint8","internalType":"enum R3tardsRaffle.State"},{"name":"_sequenceNumber","type":"uint64","internalType":"uint64"},{"name":"_rawRandomNumber","type":"bytes32","internalType":"bytes32"},{"name":"_winner","type":"address","internalType":"address"},{"name":"_winningTicket","type":"uint256","internalType":"uint256"},{"name":"_prizeDeposited","type":"bool","internalType":"bool"},{"name":"_prizeClaimed","type":"bool","internalType":"bool"}],"stateMutability":"view"},{"type":"function","name":"getWalletTickets","inputs":[{"name":"wallet","type":"address","internalType":"address"}],"outputs":[{"name":"from","type":"uint256","internalType":"uint256"},{"name":"to","type":"uint256","internalType":"uint256"},{"name":"found","type":"bool","internalType":"bool"}],"stateMutability":"view"},{"type":"function","name":"initSnapshot","inputs":[{"name":"_snapshotBlock","type":"uint256","internalType":"uint256"},{"name":"_snapshotHash","type":"bytes32","internalType":"bytes32"}],"outputs":[],"stateMutability":"nonpayable"},{"type":"function","name":"loadTicketsBatch","inputs":[{"name":"_wallets","type":"address[]","internalType":"address[]"},{"name":"_tickets","type":"uint256[]","internalType":"uint256[]"}],"outputs":[],"stateMutability":"nonpayable"},{"type":"function","name":"onERC721Received","inputs":[{"name":"","type":"address","internalType":"address"},{"name":"from","type":"address","internalType":"address"},{"name":"tokenId","type":"uint256","internalType":"uint256"},{"name":"","type":"bytes","internalType":"bytes"}],"outputs":[{"name":"","type":"bytes4","internalType":"bytes4"}],"stateMutability":"nonpayable"},{"type":"function","name":"owner","inputs":[],"outputs":[{"name":"","type":"address","internalType":"address"}],"stateMutability":"view"},{"type":"function","name":"prizeClaimed","inputs":[],"outputs":[{"name":"","type":"bool","internalType":"bool"}],"stateMutability":"view"},{"type":"function","name":"prizeDeposited","inputs":[],"outputs":[{"name":"","type":"bool","internalType":"bool"}],"stateMutability":"view"},{"type":"function","name":"prizeDepositor","inputs":[],"outputs":[{"name":"","type":"address","internalType":"address"}],"stateMutability":"view"},{"type":"function","name":"prizeNFT","inputs":[],"outputs":[{"name":"","type":"address","internalType":"address"}],"stateMutability":"view"},{"type":"function","name":"prizeTokenId","inputs":[],"outputs":[{"name":"","type":"uint256","internalType":"uint256"}],"stateMutability":"view"},{"type":"function","name":"rawRandomNumber","inputs":[],"outputs":[{"name":"","type":"bytes32","internalType":"bytes32"}],"stateMutability":"view"},{"type":"function","name":"recoverPrize","inputs":[],"outputs":[],"stateMutability":"nonpayable"},{"type":"function","name":"requestDraw","inputs":[{"name":"userRandomNumber","type":"bytes32","internalType":"bytes32"}],"outputs":[],"stateMutability":"payable"},{"type":"function","name":"sequenceNumber","inputs":[],"outputs":[{"name":"","type":"uint64","internalType":"uint64"}],"stateMutability":"view"},{"type":"function","name":"setDrawDeadline","inputs":[{"name":"_deadlineBlock","type":"uint256","internalType":"uint256"}],"outputs":[],"stateMutability":"nonpayable"},{"type":"function","name":"snapshotBlock","inputs":[],"outputs":[{"name":"","type":"uint256","internalType":"uint256"}],"stateMutability":"view"},{"type":"function","name":"snapshotHash","inputs":[],"outputs":[{"name":"","type":"bytes32","internalType":"bytes32"}],"stateMutability":"view"},{"type":"function","name":"state","inputs":[],"outputs":[{"name":"","type":"uint8","internalType":"enum R3tardsRaffle.State"}],"stateMutability":"view"},{"type":"function","name":"totalTickets","inputs":[],"outputs":[{"name":"","type":"uint256","internalType":"uint256"}],"stateMutability":"view"},{"type":"function","name":"wallets","inputs":[{"name":"","type":"uint256","internalType":"uint256"}],"outputs":[{"name":"","type":"address","internalType":"address"}],"stateMutability":"view"},{"type":"function","name":"winner","inputs":[],"outputs":[{"name":"","type":"address","internalType":"address"}],"stateMutability":"view"},{"type":"function","name":"winningTicket","inputs":[],"outputs":[{"name":"","type":"uint256","internalType":"uint256"}],"stateMutability":"view"},{"type":"event","name":"DrawComplete","inputs":[{"name":"winner","type":"address","indexed":true,"internalType":"address"},{"name":"winningTicket","type":"uint256","indexed":false,"internalType":"uint256"},{"name":"totalTickets","type":"uint256","indexed":false,"internalType":"uint256"},{"name":"randomNumber","type":"bytes32","indexed":false,"internalType":"bytes32"}],"anonymous":false},{"type":"event","name":"DrawDeadlineSet","inputs":[{"name":"blockNumber","type":"uint256","indexed":false,"internalType":"uint256"}],"anonymous":false},{"type":"event","name":"DrawRequested","inputs":[{"name":"sequenceNumber","type":"uint64","indexed":true,"internalType":"uint64"},{"name":"userRandomNumber","type":"bytes32","indexed":false,"internalType":"bytes32"},{"name":"feePaid","type":"uint256","indexed":false,"internalType":"uint256"}],"anonymous":false},{"type":"event","name":"PrizeClaimed","inputs":[{"name":"winner","type":"address","indexed":true,"internalType":"address"},{"name":"nft","type":"address","indexed":true,"internalType":"address"},{"name":"tokenId","type":"uint256","indexed":false,"internalType":"uint256"}],"anonymous":false},{"type":"event","name":"PrizeDeposited","inputs":[{"name":"depositor","type":"address","indexed":true,"internalType":"address"},{"name":"nft","type":"address","indexed":true,"internalType":"address"},{"name":"tokenId","type":"uint256","indexed":false,"internalType":"uint256"}],"anonymous":false},{"type":"event","name":"PrizeRecovered","inputs":[{"name":"to","type":"address","indexed":true,"internalType":"address"},{"name":"nft","type":"address","indexed":true,"internalType":"address"},{"name":"tokenId","type":"uint256","indexed":false,"internalType":"uint256"}],"anonymous":false},{"type":"event","name":"SnapshotBatchLoaded","inputs":[{"name":"batchSize","type":"uint256","indexed":false,"internalType":"uint256"},{"name":"totalWallets","type":"uint256","indexed":false,"internalType":"uint256"},{"name":"totalTicketsSoFar","type":"uint256","indexed":false,"internalType":"uint256"}],"anonymous":false},{"type":"event","name":"SnapshotFinalized","inputs":[{"name":"walletCount","type":"uint256","indexed":false,"internalType":"uint256"},{"name":"totalTickets","type":"uint256","indexed":false,"internalType":"uint256"},{"name":"snapshotBlock","type":"uint256","indexed":false,"internalType":"uint256"},{"name":"snapshotHash","type":"bytes32","indexed":false,"internalType":"bytes32"}],"anonymous":false},{"type":"error","name":"DeadlineNotSet","inputs":[]},{"type":"error","name":"DeadlinePassed","inputs":[{"name":"current","type":"uint256","internalType":"uint256"},{"name":"deadline","type":"uint256","internalType":"uint256"}]},{"type":"error","name":"InvalidSnapshot","inputs":[]},{"type":"error","name":"NoEligibleWinner","inputs":[]},{"type":"error","name":"NotAuthorizedDepositor","inputs":[]},{"type":"error","name":"NotEntropyContract","inputs":[]},{"type":"error","name":"NotOwner","inputs":[]},{"type":"error","name":"NotWinnerOrOwner","inputs":[]},{"type":"error","name":"PrizeAlreadyClaimed","inputs":[]},{"type":"error","name":"PrizeNotDeposited","inputs":[]},{"type":"error","name":"RandomnessNotResolved","inputs":[]},{"type":"error","name":"WrongState","inputs":[{"name":"current","type":"uint8","internalType":"enum R3tardsRaffle.State"}]},{"type":"error","name":"ZeroTicketEntry","inputs":[]}],"bytecode":{"object":"0x60c060405234801561001057600080fd5b503360805273d458261e832415cfd3bae5e416fdf3230ce6f13460a0526007805460ff60b01b1916905560805160a051611de46100976000396000818161041d0152610f3e0152600081816106c3015281816108d601528181610add01528181610c0701528181610e26015281816111640152818161145701526117c90152611de46000f3fe6080604052600436106102555760003560e01c806376e5c0f511610139578063ad1fca85116100b6578063dd11247e1161007a578063dd11247e146107f0578063dfbf53ae14610806578063e6c81c7214610826578063ea9d944d14610846578063fe5ad5f614610883578063ff9aff5a146108ab57600080fd5b8063ad1fca8514610744578063c19d93fb14610764578063c1b8411a14610792578063c26eea54146107ba578063c8196685146107d057600080fd5b80638a48daca116100fd5780638a48daca1461069c5780638da5cb5b146106b15780639042bbf3146106e557806394b91f06146107065780639dba4fe71461072e57600080fd5b806376e5c0f5146105a85780637ad71f72146105bd5780638166f6b2146105dd5780638363f2051461064c57806386297da61461067457600080fd5b806347ce07cc116101d257806364ca23ef1161019657806364ca23ef146104d1578063680072d01461051257806370740ac91461052d57806371e4237e1461054257806371f152bc14610558578063724c897c1461058057600080fd5b806347ce07cc1461040b5780634feda51014610457578063505244fb1461046a57806352a5f1f81461048a5780635404bbf7146104aa57600080fd5b8063213c949c11610219578063213c949c1461036357806324359cef146103795780632f3729161461038e57806333d608f1146103bf5780633da8cb64146103eb57600080fd5b80630641e9e3146102615780630b78824b14610283578063115cbaf5146102ac578063150b7a02146103145780631f90b2a51461034d57600080fd5b3661025c57005b600080fd5b34801561026d57600080fd5b5061028161027c366004611a2d565b6108cb565b005b34801561028f57600080fd5b5061029960065481565b6040519081526020015b60405180910390f35b3480156102b857600080fd5b50600754600854600a54600b5460ff600160b01b850481169467ffffffffffffffff600160b81b82041694936001600160a01b03169291600160a01b8204811691600160a81b9004166040516102a39796959493929190611a7e565b34801561032057600080fd5b5061033461032f366004611aef565b6109cd565b6040516001600160e01b031990911681526020016102a3565b34801561035957600080fd5b5061029960035481565b34801561036f57600080fd5b5061029960085481565b34801561038557600080fd5b50610281610ad2565b34801561039a57600080fd5b506007546103af90600160a01b900460ff1681565b60405190151581526020016102a3565b3480156103cb57600080fd5b506103d66207a12081565b60405163ffffffff90911681526020016102a3565b3480156103f757600080fd5b50610281610406366004611bd6565b610bfc565b34801561041757600080fd5b5061043f7f000000000000000000000000000000000000000000000000000000000000000081565b6040516001600160a01b0390911681526020016102a3565b610281610465366004611a2d565b610e1b565b34801561047657600080fd5b5060075461043f906001600160a01b031681565b34801561049657600080fd5b506102816104a5366004611c58565b61102a565b3480156104b657600080fd5b5073d458261e832415cfd3bae5e416fdf3230ce6f13461043f565b3480156104dd57600080fd5b506007546104f990600160b81b900467ffffffffffffffff1681565b60405167ffffffffffffffff90911681526020016102a3565b34801561051e57600080fd5b50670853a0d2313c0000610299565b34801561053957600080fd5b50610281611143565b34801561054e57600080fd5b5061029960045481565b34801561056457600080fd5b5061043f73dfc19dd5f80048df12d7a71cb01226f8ce24a95481565b34801561058c57600080fd5b5061043f73ec823eaffa4584f482a0d9c3e634840d1406624281565b3480156105b457600080fd5b5061028161131a565b3480156105c957600080fd5b5061043f6105d8366004611a2d565b611422565b3480156105e957600080fd5b506002546000546003546004546005546006546007546009546040805198895260208901979097529587019490945260608601929092526001600160a01b03908116608086015260a08501919091521660c083015260e0820152610100016102a3565b34801561065857600080fd5b5061043f7318d5346216315667c51d69f346e3c768136f801881565b34801561068057600080fd5b5061043f7352deaa1c84233f7bb8c8a45baede41091c61650681565b3480156106a857600080fd5b5061028161144c565b3480156106bd57600080fd5b5061043f7f000000000000000000000000000000000000000000000000000000000000000081565b3480156106f157600080fd5b506007546103af90600160a81b900460ff1681565b34801561071257600080fd5b5061043f73f10ed040f182511ef2179adea749920881a4eef981565b34801561073a57600080fd5b5061029960095481565b34801561075057600080fd5b506103af61075f366004611c96565b611600565b34801561077057600080fd5b5060075461078590600160b01b900460ff1681565b6040516102a39190611cb8565b34801561079e57600080fd5b5061043f7340ea55e0b8f02f8ebc9d91e082e202ed988647fa81565b3480156107c657600080fd5b50610299600b5481565b3480156107dc57600080fd5b506102996107eb366004611a2d565b6116c4565b3480156107fc57600080fd5b5061029960025481565b34801561081257600080fd5b50600a5461043f906001600160a01b031681565b34801561083257600080fd5b5060055461043f906001600160a01b031681565b34801561085257600080fd5b50610866610861366004611c96565b6116e5565b6040805193845260208401929092521515908201526060016102a3565b34801561088f57600080fd5b5061043f73d458261e832415cfd3bae5e416fdf3230ce6f13481565b3480156108b757600080fd5b506102816108c6366004611cc6565b6117be565b336001600160a01b037f00000000000000000000000000000000000000000000000000000000000000001614610914576040516330cd747160e01b815260040160405180910390fd5b6003600754600160b01b900460ff16600681111561093457610934611a46565b146109695760075460405163e37d4aeb60e01b815261096091600160b01b900460ff1690600401611cb8565b60405180910390fd5b4381116109925760405163041f95d160e51b815243600482015260248101829052604401610960565b60098190556040518181527fc62a9ef8b5bef82ed15f03a154a6460617a32caad4684ac66222e9ece165a6899060200160405180910390a150565b60006109d885611600565b6109f557604051630f31011960e31b815260040160405180910390fd5b6002600754600160b01b900460ff166006811115610a1557610a15611a46565b14610a415760075460405163e37d4aeb60e01b815261096091600160b01b900460ff1690600401611cb8565b600580546001600160a01b031916339081179091556006859055600780546001600160a81b0319166001600160a01b038816908117600160a01b1761ffff60a81b1916600360b01b179091556040805187815290517fd82faec3933694dcb87240304f25efe99bf66c13d39cf0166317872e51719e919181900360200190a350630a85bd0160e11b95945050505050565b336001600160a01b037f00000000000000000000000000000000000000000000000000000000000000001614610b1b576040516330cd747160e01b815260040160405180910390fd5b6001600754600160b01b900460ff166006811115610b3b57610b3b611a46565b14610b675760075460405163e37d4aeb60e01b815261096091600160b01b900460ff1690600401611cb8565b6000541580610b765750600254155b15610b9457604051632078467f60e11b815260040160405180910390fd5b60078054600160b11b60ff60b01b199091161790556000546002546003546004546040805194855260208501939093529183015260608201527f3788aebd3fff64e2f1eeff45d41159bd4bb95329529c0f3f70feb16cccd485389060800160405180910390a1565b336001600160a01b037f00000000000000000000000000000000000000000000000000000000000000001614610c45576040516330cd747160e01b815260040160405180910390fd5b6001600754600160b01b900460ff166006811115610c6557610c65611a46565b14610c915760075460405163e37d4aeb60e01b815261096091600160b01b900460ff1690600401611cb8565b821580610c9e5750828114155b15610cbc57604051632078467f60e11b815260040160405180910390fd5b60025460005b84811015610dca57838382818110610cdc57610cdc611ce8565b90506020020135600003610d03576040516350caf88d60e01b815260040160405180910390fd5b6000868683818110610d1757610d17611ce8565b9050602002016020810190610d2c9190611c96565b81546001810183556000928352602090922090910180546001600160a01b0319166001600160a01b03909216919091179055838382818110610d7057610d70611ce8565b9050602002013582610d829190611d14565b6001805480820182556000919091527fb10e2d527612073b26eecdfd717e6a320cf44b4afac2b0732d9fcbe2b7fa0cf601819055915080610dc281611d27565b915050610cc2565b50600281905560005460408051868152602081019290925281018290527f52b5def6500cc717e01fa3ef42f046248b3c2a0f93c50f43fb53a39d5329734f9060600160405180910390a15050505050565b336001600160a01b037f00000000000000000000000000000000000000000000000000000000000000001614610e64576040516330cd747160e01b815260040160405180910390fd5b6003600754600160b01b900460ff166006811115610e8457610e84611a46565b14610eb05760075460405163e37d4aeb60e01b815261096091600160b01b900460ff1690600401611cb8565b600954600003610ed35760405163f3ed6cef60e01b815260040160405180910390fd5b600954431115610f035760095460405163041f95d160e51b81524360048201526024810191909152604401610960565b6040516319cb825f60e01b81527352deaa1c84233f7bb8c8a45baede41091c6165066004820152602481018290526000906001600160a01b037f000000000000000000000000000000000000000000000000000000000000000016906319cb825f90349060440160206040518083038185885af1158015610f88573d6000803e3d6000fd5b50505050506040513d601f19601f82011682018060405250810190610fad9190611d40565b6007805467ffffffffffffffff8316600160b81b810260ff60b01b191668ffffffffffffffffff60b01b1990921691909117600160b21b1790915560408051858152346020820152815193945091927fd5587cb50d84e0882d5950b8b50693022ada0dbaf54969e02bed33ad289708c19281900390910190a25050565b3373d458261e832415cfd3bae5e416fdf3230ce6f1341461105e57604051638940026960e01b815260040160405180910390fd5b6004600754600160b01b900460ff16600681111561107e5761107e611a46565b146110aa5760075460405163e37d4aeb60e01b815261096091600160b01b900460ff1690600401611cb8565b60075467ffffffffffffffff848116600160b81b90920416146110e0576040516375521e5160e11b815260040160405180910390fd5b60088190556007805460ff60b01b1916600560b01b179055600254604080516000808252602082019390935280820184905290517fb2d702dd29cccece7b8839005c210ba28a6d924a1a8f14e12f119b5bb44c01399181900360600190a2505050565b600a546001600160a01b031633148015906111875750336001600160a01b037f00000000000000000000000000000000000000000000000000000000000000001614155b156111a557604051634601d9ef60e01b815260040160405180910390fd5b6006600754600160b01b900460ff1660068111156111c5576111c5611a46565b146111f15760075460405163e37d4aeb60e01b815261096091600160b01b900460ff1690600401611cb8565b600754600160a01b900460ff1661121b5760405163df7895dd60e01b815260040160405180910390fd5b600754600160a81b900460ff16156112465760405163611ab18960e11b815260040160405180910390fd5b6007805461ffff60a01b1916600160a81b179055600554600a546006546040519081526001600160a01b0392831692909116907f2538f3c17332d99324c5fd2a595cca313ab5ea1035964178870177a92a186ce49060200160405180910390a3600554600a54600654604051632142170760e11b81523060048201526001600160a01b03928316602482015260448101919091529116906342842e0e90606401600060405180830381600087803b15801561130057600080fd5b505af1158015611314573d6000803e3d6000fd5b50505050565b6005600754600160b01b900460ff16600681111561133a5761133a611a46565b146113665760075460405163e37d4aeb60e01b815261096091600160b01b900460ff1690600401611cb8565b60025460000361138957604051632078467f60e11b815260040160405180910390fd5b6002546008546113999190611d73565b600b8190556113a7906118bf565b600a80546001600160a01b0319166001600160a01b039290921691821790556007805460ff60b01b1916600360b11b179055600b5460025460085460408051938452602084019290925282820152517fb2d702dd29cccece7b8839005c210ba28a6d924a1a8f14e12f119b5bb44c01399181900360600190a2565b6000818154811061143257600080fd5b6000918252602090912001546001600160a01b0316905081565b336001600160a01b037f00000000000000000000000000000000000000000000000000000000000000001614611495576040516330cd747160e01b815260040160405180910390fd5b6006600754600160b01b900460ff1660068111156114b5576114b5611a46565b036114e15760075460405163e37d4aeb60e01b815261096091600160b01b900460ff1690600401611cb8565b600754600160a01b900460ff1661150b5760405163df7895dd60e01b815260040160405180910390fd5b6005805460068054600780546001600160a01b031985169095556000928390556008839055600992909255600160b11b6001600160f81b03198516179091556040518181526001600160a01b0392831693919290911690839082907f0ba6ea9de0726bd31e82a62f0a70916a21d2132c6fa05d08b5b88b103a4924f89060200160405180910390a3604051632142170760e11b81523060048201526001600160a01b038281166024830152604482018490528416906342842e0e90606401600060405180830381600087803b1580156115e357600080fd5b505af11580156115f7573d6000803e3d6000fd5b50505050505050565b60006001600160a01b0382167340ea55e0b8f02f8ebc9d91e082e202ed988647fa148061164957506001600160a01b03821673dfc19dd5f80048df12d7a71cb01226f8ce24a954145b8061167057506001600160a01b0382167318d5346216315667c51d69f346e3c768136f8018145b8061169757506001600160a01b03821673f10ed040f182511ef2179adea749920881a4eef9145b806116be57506001600160a01b03821673ec823eaffa4584f482a0d9c3e634840d14066242145b92915050565b600181815481106116d457600080fd5b600091825260209091200154905081565b60008080805b6000548110156117aa57846001600160a01b03166000828154811061171257611712611ce8565b6000918252602090912001546001600160a01b03160361179857801561175e57600161173e8183611d87565b8154811061174e5761174e611ce8565b9060005260206000200154611761565b60005b9350600180828154811061177757611777611ce8565b906000526020600020015461178c9190611d87565b925060019150506117b7565b806117a281611d27565b9150506116eb565b5060008060009250925092505b9193909250565b336001600160a01b037f00000000000000000000000000000000000000000000000000000000000000001614611807576040516330cd747160e01b815260040160405180910390fd5b6000600754600160b01b900460ff16600681111561182757611827611a46565b146118535760075460405163e37d4aeb60e01b815261096091600160b01b900460ff1690600401611cb8565b61185e6000806119f3565b61186a600160006119f3565b60006002819055600392909255600455600580546001600160a01b03199081169091556006829055600780546009849055600a8054909316909255600b929092556001600160f81b031916600160b01b179055565b60018054600091829182916118d391611d87565b90505b8082101561193857600060026118ec8385611d14565b6118f69190611d9a565b9050846001828154811061190c5761190c611ce8565b90600052602060002001541161192e57611927816001611d14565b9250611932565b8091505b506118d6565b60008054905b818110156119d9576000826119538387611d14565b61195d9190611d73565b905061198f6000828154811061197557611975611ce8565b6000918252602090912001546001600160a01b0316611600565b6119c657600081815481106119a6576119a6611ce8565b6000918252602090912001546001600160a01b0316979650505050505050565b50806119d181611d27565b91505061193e565b506040516317fbe81d60e11b815260040160405180910390fd5b5080546000825590600052602060002090810190611a119190611a14565b50565b5b80821115611a295760008155600101611a15565b5090565b600060208284031215611a3f57600080fd5b5035919050565b634e487b7160e01b600052602160045260246000fd5b60078110611a7a57634e487b7160e01b600052602160045260246000fd5b9052565b60e08101611a8c828a611a5c565b67ffffffffffffffff97909716602082015260408101959095526001600160a01b039390931660608501526080840191909152151560a0830152151560c090910152919050565b80356001600160a01b0381168114611aea57600080fd5b919050565b600080600080600060808688031215611b0757600080fd5b611b1086611ad3565b9450611b1e60208701611ad3565b935060408601359250606086013567ffffffffffffffff80821115611b4257600080fd5b818801915088601f830112611b5657600080fd5b813581811115611b6557600080fd5b896020828501011115611b7757600080fd5b9699959850939650602001949392505050565b60008083601f840112611b9c57600080fd5b50813567ffffffffffffffff811115611bb457600080fd5b6020830191508360208260051b8501011115611bcf57600080fd5b9250929050565b60008060008060408587031215611bec57600080fd5b843567ffffffffffffffff80821115611c0457600080fd5b611c1088838901611b8a565b90965094506020870135915080821115611c2957600080fd5b50611c3687828801611b8a565b95989497509550505050565b67ffffffffffffffff81168114611a1157600080fd5b600080600060608486031215611c6d57600080fd5b8335611c7881611c42565b9250611c8660208501611ad3565b9150604084013590509250925092565b600060208284031215611ca857600080fd5b611cb182611ad3565b9392505050565b602081016116be8284611a5c565b60008060408385031215611cd957600080fd5b50508035926020909101359150565b634e487b7160e01b600052603260045260246000fd5b634e487b7160e01b600052601160045260246000fd5b808201808211156116be576116be611cfe565b600060018201611d3957611d39611cfe565b5060010190565b600060208284031215611d5257600080fd5b8151611cb181611c42565b634e487b7160e01b600052601260045260246000fd5b600082611d8257611d82611d5d565b500690565b818103818111156116be576116be611cfe565b600082611da957611da9611d5d565b50049056fea26469706673582212206bf0f7c20147062130fbc3693a609ea3e45e8e058f9d05f5d47161aeee04018364736f6c63430008140033","linkReferences":{}},"methodIdentifiers":{"ACTIVATION()":"8363f205","CALLBACK_GAS_LIMIT()":"33d608f1","COMMUNITY_TREASURY()":"71f152bc","DEPLOYER()":"c1b8411a","ENTROPY_CONTRACT()":"fe5ad5f6","ENTROPY_PROVIDER()":"86297da6","PARTNERS()":"94b91f06","TEAM_LOCK()":"724c897c","_entropyCallback(uint64,address,bytes32)":"52a5f1f8","_isTeamWallet(address)":"ad1fca85","claimPrize()":"70740ac9","cumTickets(uint256)":"c8196685","drawDeadline()":"9dba4fe7","entropy()":"47ce07cc","finalizeSnapshot()":"24359cef","fulfillDraw()":"76e5c0f5","getDrawFee()":"680072d0","getEntropy()":"5404bbf7","getRaffleInfo()":"8166f6b2","getRaffleState()":"115cbaf5","getWalletTickets(address)":"ea9d944d","initSnapshot(uint256,bytes32)":"ff9aff5a","loadTicketsBatch(address[],uint256[])":"3da8cb64","onERC721Received(address,address,uint256,bytes)":"150b7a02","owner()":"8da5cb5b","prizeClaimed()":"9042bbf3","prizeDeposited()":"2f372916","prizeDepositor()":"505244fb","prizeNFT()":"e6c81c72","prizeTokenId()":"0b78824b","rawRandomNumber()":"213c949c","recoverPrize()":"8a48daca","requestDraw(bytes32)":"4feda510","sequenceNumber()":"64ca23ef","setDrawDeadline(uint256)":"0641e9e3","snapshotBlock()":"1f90b2a5","snapshotHash()":"71e4237e","state()":"c19d93fb","totalTickets()":"dd11247e","wallets(uint256)":"7ad71f72","winner()":"dfbf53ae","winningTicket()":"c26eea54"},"id":0}