{"abi":[{"type":"constructor","inputs":[],"stateMutability":"nonpayable"},{"type":"receive","stateMutability":"payable"},{"type":"function","name":"ACTIVATION","inputs":[],"outputs":[{"name":"","type":"address","internalType":"address"}],"stateMutability":"view"},{"type":"function","name":"COMMUNITY_TREASURY","inputs":[],"outputs":[{"name":"","type":"address","internalType":"address"}],"stateMutability":"view"},{"type":"function","name":"DEPLOYER","inputs":[],"outputs":[{"name":"","type":"address","internalType":"address"}],"stateMutability":"view"},{"type":"function","name":"ENTROPY_CONTRACT","inputs":[],"outputs":[{"name":"","type":"address","internalType":"address"}],"stateMutability":"view"},{"type":"function","name":"ENTROPY_PROVIDER","inputs":[],"outputs":[{"name":"","type":"address","internalType":"address"}],"stateMutability":"view"},{"type":"function","name":"PARTNERS","inputs":[],"outputs":[{"name":"","type":"address","internalType":"address"}],"stateMutability":"view"},{"type":"function","name":"TEAM_LOCK","inputs":[],"outputs":[{"name":"","type":"address","internalType":"address"}],"stateMutability":"view"},{"type":"function","name":"_entropyCallback","inputs":[{"name":"_sequenceNumber","type":"uint64","internalType":"uint64"},{"name":"","type":"address","internalType":"address"},{"name":"randomNumber","type":"bytes32","internalType":"bytes32"}],"outputs":[],"stateMutability":"nonpayable"},{"type":"function","name":"_isTeamWallet","inputs":[{"name":"addr","type":"address","internalType":"address"}],"outputs":[{"name":"","type":"bool","internalType":"bool"}],"stateMutability":"pure"},{"type":"function","name":"claimPrize","inputs":[],"outputs":[],"stateMutability":"nonpayable"},{"type":"function","name":"cumTickets","inputs":[{"name":"","type":"uint256","internalType":"uint256"}],"outputs":[{"name":"","type":"uint256","internalType":"uint256"}],"stateMutability":"view"},{"type":"function","name":"drawDeadline","inputs":[],"outputs":[{"name":"","type":"uint256","internalType":"uint256"}],"stateMutability":"view"},{"type":"function","name":"entropy","inputs":[],"outputs":[{"name":"","type":"address","internalType":"contract IEntropy"}],"stateMutability":"view"},{"type":"function","name":"finalizeSnapshot","inputs":[],"outputs":[],"stateMutability":"nonpayable"},{"type":"function","name":"fulfillDraw","inputs":[],"outputs":[],"stateMutability":"nonpayable"},{"type":"function","name":"getDrawFee","inputs":[],"outputs":[{"name":"","type":"uint256","internalType":"uint256"}],"stateMutability":"pure"},{"type":"function","name":"getEntropy","inputs":[],"outputs":[{"name":"","type":"address","internalType":"address"}],"stateMutability":"pure"},{"type":"function","name":"getRaffleInfo","inputs":[],"outputs":[{"name":"_totalTickets","type":"uint256","internalType":"uint256"},{"name":"_walletCount","type":"uint256","internalType":"uint256"},{"name":"_snapshotBlock","type":"uint256","internalType":"uint256"},{"name":"_snapshotHash","type":"bytes32","internalType":"bytes32"},{"name":"_prizeNFT","type":"address","internalType":"address"},{"name":"_prizeTokenId","type":"uint256","internalType":"uint256"},{"name":"_prizeDepositor","type":"address","internalType":"address"},{"name":"_drawDeadline","type":"uint256","internalType":"uint256"}],"stateMutability":"view"},{"type":"function","name":"getRaffleState","inputs":[],"outputs":[{"name":"_state","type":"uint8","internalType":"enum R3tardsRaffle.State"},{"name":"_sequenceNumber","type":"uint64","internalType":"uint64"},{"name":"_rawRandomNumber","type":"bytes32","internalType":"bytes32"},{"name":"_winner","type":"address","internalType":"address"},{"name":"_winningTicket","type":"uint256","internalType":"uint256"},{"name":"_prizeDeposited","type":"bool","internalType":"bool"},{"name":"_prizeClaimed","type":"bool","internalType":"bool"}],"stateMutability":"view"},{"type":"function","name":"getWalletTickets","inputs":[{"name":"wallet","type":"address","internalType":"address"}],"outputs":[{"name":"from","type":"uint256","internalType":"uint256"},{"name":"to","type":"uint256","internalType":"uint256"},{"name":"found","type":"bool","internalType":"bool"}],"stateMutability":"view"},{"type":"function","name":"initSnapshot","inputs":[{"name":"_snapshotBlock","type":"uint256","internalType":"uint256"},{"name":"_snapshotHash","type":"bytes32","internalType":"bytes32"}],"outputs":[],"stateMutability":"nonpayable"},{"type":"function","name":"loadTicketsBatch","inputs":[{"name":"_wallets","type":"address[]","internalType":"address[]"},{"name":"_tickets","type":"uint256[]","internalType":"uint256[]"}],"outputs":[],"stateMutability":"nonpayable"},{"type":"function","name":"onERC721Received","inputs":[{"name":"","type":"address","internalType":"address"},{"name":"from","type":"address","internalType":"address"},{"name":"tokenId","type":"uint256","internalType":"uint256"},{"name":"","type":"bytes","internalType":"bytes"}],"outputs":[{"name":"","type":"bytes4","internalType":"bytes4"}],"stateMutability":"nonpayable"},{"type":"function","name":"owner","inputs":[],"outputs":[{"name":"","type":"address","internalType":"address"}],"stateMutability":"view"},{"type":"function","name":"prizeClaimed","inputs":[],"outputs":[{"name":"","type":"bool","internalType":"bool"}],"stateMutability":"view"},{"type":"function","name":"prizeDeposited","inputs":[],"outputs":[{"name":"","type":"bool","internalType":"bool"}],"stateMutability":"view"},{"type":"function","name":"prizeDepositor","inputs":[],"outputs":[{"name":"","type":"address","internalType":"address"}],"stateMutability":"view"},{"type":"function","name":"prizeNFT","inputs":[],"outputs":[{"name":"","type":"address","internalType":"address"}],"stateMutability":"view"},{"type":"function","name":"prizeTokenId","inputs":[],"outputs":[{"name":"","type":"uint256","internalType":"uint256"}],"stateMutability":"view"},{"type":"function","name":"rawRandomNumber","inputs":[],"outputs":[{"name":"","type":"bytes32","internalType":"bytes32"}],"stateMutability":"view"},{"type":"function","name":"recoverPrize","inputs":[],"outputs":[],"stateMutability":"nonpayable"},{"type":"function","name":"requestDraw","inputs":[{"name":"userRandomNumber","type":"bytes32","internalType":"bytes32"}],"outputs":[],"stateMutability":"payable"},{"type":"function","name":"reset","inputs":[],"outputs":[],"stateMutability":"nonpayable"},{"type":"function","name":"sequenceNumber","inputs":[],"outputs":[{"name":"","type":"uint64","internalType":"uint64"}],"stateMutability":"view"},{"type":"function","name":"setDrawDeadline","inputs":[{"name":"_deadlineBlock","type":"uint256","internalType":"uint256"}],"outputs":[],"stateMutability":"nonpayable"},{"type":"function","name":"snapshotBlock","inputs":[],"outputs":[{"name":"","type":"uint256","internalType":"uint256"}],"stateMutability":"view"},{"type":"function","name":"snapshotHash","inputs":[],"outputs":[{"name":"","type":"bytes32","internalType":"bytes32"}],"stateMutability":"view"},{"type":"function","name":"state","inputs":[],"outputs":[{"name":"","type":"uint8","internalType":"enum R3tardsRaffle.State"}],"stateMutability":"view"},{"type":"function","name":"totalTickets","inputs":[],"outputs":[{"name":"","type":"uint256","internalType":"uint256"}],"stateMutability":"view"},{"type":"function","name":"wallets","inputs":[{"name":"","type":"uint256","internalType":"uint256"}],"outputs":[{"name":"","type":"address","internalType":"address"}],"stateMutability":"view"},{"type":"function","name":"winner","inputs":[],"outputs":[{"name":"","type":"address","internalType":"address"}],"stateMutability":"view"},{"type":"function","name":"winningTicket","inputs":[],"outputs":[{"name":"","type":"uint256","internalType":"uint256"}],"stateMutability":"view"},{"type":"event","name":"DrawComplete","inputs":[{"name":"winner","type":"address","indexed":true,"internalType":"address"},{"name":"winningTicket","type":"uint256","indexed":false,"internalType":"uint256"},{"name":"totalTickets","type":"uint256","indexed":false,"internalType":"uint256"},{"name":"randomNumber","type":"bytes32","indexed":false,"internalType":"bytes32"}],"anonymous":false},{"type":"event","name":"DrawDeadlineSet","inputs":[{"name":"blockNumber","type":"uint256","indexed":false,"internalType":"uint256"}],"anonymous":false},{"type":"event","name":"DrawRequested","inputs":[{"name":"sequenceNumber","type":"uint64","indexed":true,"internalType":"uint64"},{"name":"userRandomNumber","type":"bytes32","indexed":false,"internalType":"bytes32"},{"name":"feePaid","type":"uint256","indexed":false,"internalType":"uint256"}],"anonymous":false},{"type":"event","name":"PrizeClaimed","inputs":[{"name":"winner","type":"address","indexed":true,"internalType":"address"},{"name":"nft","type":"address","indexed":true,"internalType":"address"},{"name":"tokenId","type":"uint256","indexed":false,"internalType":"uint256"}],"anonymous":false},{"type":"event","name":"PrizeDeposited","inputs":[{"name":"depositor","type":"address","indexed":true,"internalType":"address"},{"name":"nft","type":"address","indexed":true,"internalType":"address"},{"name":"tokenId","type":"uint256","indexed":false,"internalType":"uint256"}],"anonymous":false},{"type":"event","name":"PrizeRecovered","inputs":[{"name":"to","type":"address","indexed":true,"internalType":"address"},{"name":"nft","type":"address","indexed":true,"internalType":"address"},{"name":"tokenId","type":"uint256","indexed":false,"internalType":"uint256"}],"anonymous":false},{"type":"event","name":"SnapshotBatchLoaded","inputs":[{"name":"batchSize","type":"uint256","indexed":false,"internalType":"uint256"},{"name":"totalWallets","type":"uint256","indexed":false,"internalType":"uint256"},{"name":"totalTicketsSoFar","type":"uint256","indexed":false,"internalType":"uint256"}],"anonymous":false},{"type":"event","name":"SnapshotFinalized","inputs":[{"name":"walletCount","type":"uint256","indexed":false,"internalType":"uint256"},{"name":"totalTickets","type":"uint256","indexed":false,"internalType":"uint256"},{"name":"snapshotBlock","type":"uint256","indexed":false,"internalType":"uint256"},{"name":"snapshotHash","type":"bytes32","indexed":false,"internalType":"bytes32"}],"anonymous":false},{"type":"error","name":"DeadlineNotSet","inputs":[]},{"type":"error","name":"DeadlinePassed","inputs":[{"name":"current","type":"uint256","internalType":"uint256"},{"name":"deadline","type":"uint256","internalType":"uint256"}]},{"type":"error","name":"InvalidSnapshot","inputs":[]},{"type":"error","name":"NoEligibleWinner","inputs":[]},{"type":"error","name":"NotAuthorizedDepositor","inputs":[]},{"type":"error","name":"NotEntropyContract","inputs":[]},{"type":"error","name":"NotOwner","inputs":[]},{"type":"error","name":"NotWinnerOrOwner","inputs":[]},{"type":"error","name":"PrizeAlreadyClaimed","inputs":[]},{"type":"error","name":"PrizeNotClaimed","inputs":[]},{"type":"error","name":"PrizeNotDeposited","inputs":[]},{"type":"error","name":"RandomnessNotResolved","inputs":[]},{"type":"error","name":"WrongState","inputs":[{"name":"current","type":"uint8","internalType":"enum R3tardsRaffle.State"}]},{"type":"error","name":"ZeroTicketEntry","inputs":[]}],"bytecode":{"object":"0x60c060405234801561001057600080fd5b503360805273d458261e832415cfd3bae5e416fdf3230ce6f13460a0526007805460ff60b01b1916905560805160a051611e9c61009e600039600081816103f10152610f27015260008181610697015281816108bf01528181610ac601528181610bf001528181610e0f0152818161114d01528181611440015281816116d901526118810152611e9c6000f3fe6080604052600436106102555760003560e01c80637ad71f7211610139578063c19d93fb116100b6578063dd11247e1161007a578063dd11247e146107d9578063dfbf53ae146107ef578063e6c81c721461080f578063ea9d944d1461082f578063fe5ad5f61461086c578063ff9aff5a1461089457600080fd5b8063c19d93fb14610738578063c1b8411a14610766578063c26eea541461078e578063c8196685146107a4578063d826f88f146107c457600080fd5b80638da5cb5b116100fd5780638da5cb5b146106855780639042bbf3146106b957806394b91f06146106da5780639dba4fe714610702578063ad1fca851461071857600080fd5b80637ad71f72146105915780638166f6b2146105b15780638363f2051461062057806386297da6146106485780638a48daca1461067057600080fd5b80634feda510116101d2578063680072d011610196578063680072d0146104e657806370740ac91461050157806371e4237e1461051657806371f152bc1461052c578063724c897c1461055457806376e5c0f51461057c57600080fd5b80634feda5101461042b578063505244fb1461043e57806352a5f1f81461045e5780635404bbf71461047e57806364ca23ef146104a557600080fd5b8063213c949c11610219578063213c949c1461036357806324359cef146103795780632f3729161461038e5780633da8cb64146103bf57806347ce07cc146103df57600080fd5b80630641e9e3146102615780630b78824b14610283578063115cbaf5146102ac578063150b7a02146103145780631f90b2a51461034d57600080fd5b3661025c57005b600080fd5b34801561026d57600080fd5b5061028161027c366004611ae5565b6108b4565b005b34801561028f57600080fd5b5061029960065481565b6040519081526020015b60405180910390f35b3480156102b857600080fd5b50600754600854600a54600b5460ff600160b01b850481169467ffffffffffffffff600160b81b82041694936001600160a01b03169291600160a01b8204811691600160a81b9004166040516102a39796959493929190611b36565b34801561032057600080fd5b5061033461032f366004611ba7565b6109b6565b6040516001600160e01b031990911681526020016102a3565b34801561035957600080fd5b5061029960035481565b34801561036f57600080fd5b5061029960085481565b34801561038557600080fd5b50610281610abb565b34801561039a57600080fd5b506007546103af90600160a01b900460ff1681565b60405190151581526020016102a3565b3480156103cb57600080fd5b506102816103da366004611c8e565b610be5565b3480156103eb57600080fd5b506104137f000000000000000000000000000000000000000000000000000000000000000081565b6040516001600160a01b0390911681526020016102a3565b610281610439366004611ae5565b610e04565b34801561044a57600080fd5b50600754610413906001600160a01b031681565b34801561046a57600080fd5b50610281610479366004611d10565b611013565b34801561048a57600080fd5b5073d458261e832415cfd3bae5e416fdf3230ce6f134610413565b3480156104b157600080fd5b506007546104cd90600160b81b900467ffffffffffffffff1681565b60405167ffffffffffffffff90911681526020016102a3565b3480156104f257600080fd5b50670853a0d2313c0000610299565b34801561050d57600080fd5b5061028161112c565b34801561052257600080fd5b5061029960045481565b34801561053857600080fd5b5061041373dfc19dd5f80048df12d7a71cb01226f8ce24a95481565b34801561056057600080fd5b5061041373ec823eaffa4584f482a0d9c3e634840d1406624281565b34801561058857600080fd5b50610281611303565b34801561059d57600080fd5b506104136105ac366004611ae5565b61140b565b3480156105bd57600080fd5b506002546000546003546004546005546006546007546009546040805198895260208901979097529587019490945260608601929092526001600160a01b03908116608086015260a08501919091521660c083015260e0820152610100016102a3565b34801561062c57600080fd5b506104137318d5346216315667c51d69f346e3c768136f801881565b34801561065457600080fd5b506104137352deaa1c84233f7bb8c8a45baede41091c61650681565b34801561067c57600080fd5b50610281611435565b34801561069157600080fd5b506104137f000000000000000000000000000000000000000000000000000000000000000081565b3480156106c557600080fd5b506007546103af90600160a81b900460ff1681565b3480156106e657600080fd5b5061041373f10ed040f182511ef2179adea749920881a4eef981565b34801561070e57600080fd5b5061029960095481565b34801561072457600080fd5b506103af610733366004611d4e565b6115e9565b34801561074457600080fd5b5060075461075990600160b01b900460ff1681565b6040516102a39190611d70565b34801561077257600080fd5b506104137340ea55e0b8f02f8ebc9d91e082e202ed988647fa81565b34801561079a57600080fd5b50610299600b5481565b3480156107b057600080fd5b506102996107bf366004611ae5565b6116ad565b3480156107d057600080fd5b506102816116ce565b3480156107e557600080fd5b5061029960025481565b3480156107fb57600080fd5b50600a54610413906001600160a01b031681565b34801561081b57600080fd5b50600554610413906001600160a01b031681565b34801561083b57600080fd5b5061084f61084a366004611d4e565b61179d565b6040805193845260208401929092521515908201526060016102a3565b34801561087857600080fd5b5061041373d458261e832415cfd3bae5e416fdf3230ce6f13481565b3480156108a057600080fd5b506102816108af366004611d7e565b611876565b336001600160a01b037f000000000000000000000000000000000000000000000000000000000000000016146108fd576040516330cd747160e01b815260040160405180910390fd5b6003600754600160b01b900460ff16600681111561091d5761091d611afe565b146109525760075460405163e37d4aeb60e01b815261094991600160b01b900460ff1690600401611d70565b60405180910390fd5b43811161097b5760405163041f95d160e51b815243600482015260248101829052604401610949565b60098190556040518181527fc62a9ef8b5bef82ed15f03a154a6460617a32caad4684ac66222e9ece165a6899060200160405180910390a150565b60006109c1856115e9565b6109de57604051630f31011960e31b815260040160405180910390fd5b6002600754600160b01b900460ff1660068111156109fe576109fe611afe565b14610a2a5760075460405163e37d4aeb60e01b815261094991600160b01b900460ff1690600401611d70565b600580546001600160a01b031916339081179091556006859055600780546001600160a81b0319166001600160a01b038816908117600160a01b1761ffff60a81b1916600360b01b179091556040805187815290517fd82faec3933694dcb87240304f25efe99bf66c13d39cf0166317872e51719e919181900360200190a350630a85bd0160e11b95945050505050565b336001600160a01b037f00000000000000000000000000000000000000000000000000000000000000001614610b04576040516330cd747160e01b815260040160405180910390fd5b6001600754600160b01b900460ff166006811115610b2457610b24611afe565b14610b505760075460405163e37d4aeb60e01b815261094991600160b01b900460ff1690600401611d70565b6000541580610b5f5750600254155b15610b7d57604051632078467f60e11b815260040160405180910390fd5b60078054600160b11b60ff60b01b199091161790556000546002546003546004546040805194855260208501939093529183015260608201527f3788aebd3fff64e2f1eeff45d41159bd4bb95329529c0f3f70feb16cccd485389060800160405180910390a1565b336001600160a01b037f00000000000000000000000000000000000000000000000000000000000000001614610c2e576040516330cd747160e01b815260040160405180910390fd5b6001600754600160b01b900460ff166006811115610c4e57610c4e611afe565b14610c7a5760075460405163e37d4aeb60e01b815261094991600160b01b900460ff1690600401611d70565b821580610c875750828114155b15610ca557604051632078467f60e11b815260040160405180910390fd5b60025460005b84811015610db357838382818110610cc557610cc5611da0565b90506020020135600003610cec576040516350caf88d60e01b815260040160405180910390fd5b6000868683818110610d0057610d00611da0565b9050602002016020810190610d159190611d4e565b81546001810183556000928352602090922090910180546001600160a01b0319166001600160a01b03909216919091179055838382818110610d5957610d59611da0565b9050602002013582610d6b9190611dcc565b6001805480820182556000919091527fb10e2d527612073b26eecdfd717e6a320cf44b4afac2b0732d9fcbe2b7fa0cf601819055915080610dab81611ddf565b915050610cab565b50600281905560005460408051868152602081019290925281018290527f52b5def6500cc717e01fa3ef42f046248b3c2a0f93c50f43fb53a39d5329734f9060600160405180910390a15050505050565b336001600160a01b037f00000000000000000000000000000000000000000000000000000000000000001614610e4d576040516330cd747160e01b815260040160405180910390fd5b6003600754600160b01b900460ff166006811115610e6d57610e6d611afe565b14610e995760075460405163e37d4aeb60e01b815261094991600160b01b900460ff1690600401611d70565b600954600003610ebc5760405163f3ed6cef60e01b815260040160405180910390fd5b600954431115610eec5760095460405163041f95d160e51b81524360048201526024810191909152604401610949565b6040516319cb825f60e01b81527352deaa1c84233f7bb8c8a45baede41091c6165066004820152602481018290526000906001600160a01b037f000000000000000000000000000000000000000000000000000000000000000016906319cb825f90349060440160206040518083038185885af1158015610f71573d6000803e3d6000fd5b50505050506040513d601f19601f82011682018060405250810190610f969190611df8565b6007805467ffffffffffffffff8316600160b81b810260ff60b01b191668ffffffffffffffffff60b01b1990921691909117600160b21b1790915560408051858152346020820152815193945091927fd5587cb50d84e0882d5950b8b50693022ada0dbaf54969e02bed33ad289708c19281900390910190a25050565b3373d458261e832415cfd3bae5e416fdf3230ce6f1341461104757604051638940026960e01b815260040160405180910390fd5b6004600754600160b01b900460ff16600681111561106757611067611afe565b146110935760075460405163e37d4aeb60e01b815261094991600160b01b900460ff1690600401611d70565b60075467ffffffffffffffff848116600160b81b90920416146110c9576040516375521e5160e11b815260040160405180910390fd5b60088190556007805460ff60b01b1916600560b01b179055600254604080516000808252602082019390935280820184905290517fb2d702dd29cccece7b8839005c210ba28a6d924a1a8f14e12f119b5bb44c01399181900360600190a2505050565b600a546001600160a01b031633148015906111705750336001600160a01b037f00000000000000000000000000000000000000000000000000000000000000001614155b1561118e57604051634601d9ef60e01b815260040160405180910390fd5b6006600754600160b01b900460ff1660068111156111ae576111ae611afe565b146111da5760075460405163e37d4aeb60e01b815261094991600160b01b900460ff1690600401611d70565b600754600160a01b900460ff166112045760405163df7895dd60e01b815260040160405180910390fd5b600754600160a81b900460ff161561122f5760405163611ab18960e11b815260040160405180910390fd5b6007805461ffff60a01b1916600160a81b179055600554600a546006546040519081526001600160a01b0392831692909116907f2538f3c17332d99324c5fd2a595cca313ab5ea1035964178870177a92a186ce49060200160405180910390a3600554600a54600654604051632142170760e11b81523060048201526001600160a01b03928316602482015260448101919091529116906342842e0e90606401600060405180830381600087803b1580156112e957600080fd5b505af11580156112fd573d6000803e3d6000fd5b50505050565b6005600754600160b01b900460ff16600681111561132357611323611afe565b1461134f5760075460405163e37d4aeb60e01b815261094991600160b01b900460ff1690600401611d70565b60025460000361137257604051632078467f60e11b815260040160405180910390fd5b6002546008546113829190611e2b565b600b81905561139090611977565b600a80546001600160a01b0319166001600160a01b039290921691821790556007805460ff60b01b1916600360b11b179055600b5460025460085460408051938452602084019290925282820152517fb2d702dd29cccece7b8839005c210ba28a6d924a1a8f14e12f119b5bb44c01399181900360600190a2565b6000818154811061141b57600080fd5b6000918252602090912001546001600160a01b0316905081565b336001600160a01b037f0000000000000000000000000000000000000000000000000000000000000000161461147e576040516330cd747160e01b815260040160405180910390fd5b6006600754600160b01b900460ff16600681111561149e5761149e611afe565b036114ca5760075460405163e37d4aeb60e01b815261094991600160b01b900460ff1690600401611d70565b600754600160a01b900460ff166114f45760405163df7895dd60e01b815260040160405180910390fd5b6005805460068054600780546001600160a01b031985169095556000928390556008839055600992909255600160b11b6001600160f81b03198516179091556040518181526001600160a01b0392831693919290911690839082907f0ba6ea9de0726bd31e82a62f0a70916a21d2132c6fa05d08b5b88b103a4924f89060200160405180910390a3604051632142170760e11b81523060048201526001600160a01b038281166024830152604482018490528416906342842e0e90606401600060405180830381600087803b1580156115cc57600080fd5b505af11580156115e0573d6000803e3d6000fd5b50505050505050565b60006001600160a01b0382167340ea55e0b8f02f8ebc9d91e082e202ed988647fa148061163257506001600160a01b03821673dfc19dd5f80048df12d7a71cb01226f8ce24a954145b8061165957506001600160a01b0382167318d5346216315667c51d69f346e3c768136f8018145b8061168057506001600160a01b03821673f10ed040f182511ef2179adea749920881a4eef9145b806116a757506001600160a01b03821673ec823eaffa4584f482a0d9c3e634840d14066242145b92915050565b600181815481106116bd57600080fd5b600091825260209091200154905081565b336001600160a01b037f00000000000000000000000000000000000000000000000000000000000000001614611717576040516330cd747160e01b815260040160405180910390fd5b6006600754600160b01b900460ff16600681111561173757611737611afe565b146117635760075460405163e37d4aeb60e01b815261094991600160b01b900460ff1690600401611d70565b600754600160a01b900460ff161561178e57604051630e2a664560e01b815260040160405180910390fd5b6007805460ff60b01b19169055565b60008080805b60005481101561186257846001600160a01b0316600082815481106117ca576117ca611da0565b6000918252602090912001546001600160a01b0316036118505780156118165760016117f68183611e3f565b8154811061180657611806611da0565b9060005260206000200154611819565b60005b9350600180828154811061182f5761182f611da0565b90600052602060002001546118449190611e3f565b9250600191505061186f565b8061185a81611ddf565b9150506117a3565b5060008060009250925092505b9193909250565b336001600160a01b037f000000000000000000000000000000000000000000000000000000000000000016146118bf576040516330cd747160e01b815260040160405180910390fd5b6000600754600160b01b900460ff1660068111156118df576118df611afe565b1461190b5760075460405163e37d4aeb60e01b815261094991600160b01b900460ff1690600401611d70565b611916600080611aab565b61192260016000611aab565b60006002819055600392909255600455600580546001600160a01b03199081169091556006829055600780546009849055600a8054909316909255600b929092556001600160f81b031916600160b01b179055565b600180546000918291829161198b91611e3f565b90505b808210156119f057600060026119a48385611dcc565b6119ae9190611e52565b905084600182815481106119c4576119c4611da0565b9060005260206000200154116119e6576119df816001611dcc565b92506119ea565b8091505b5061198e565b60008054905b81811015611a9157600082611a0b8387611dcc565b611a159190611e2b565b9050611a4760008281548110611a2d57611a2d611da0565b6000918252602090912001546001600160a01b03166115e9565b611a7e5760008181548110611a5e57611a5e611da0565b6000918252602090912001546001600160a01b0316979650505050505050565b5080611a8981611ddf565b9150506119f6565b506040516317fbe81d60e11b815260040160405180910390fd5b5080546000825590600052602060002090810190611ac99190611acc565b50565b5b80821115611ae15760008155600101611acd565b5090565b600060208284031215611af757600080fd5b5035919050565b634e487b7160e01b600052602160045260246000fd5b60078110611b3257634e487b7160e01b600052602160045260246000fd5b9052565b60e08101611b44828a611b14565b67ffffffffffffffff97909716602082015260408101959095526001600160a01b039390931660608501526080840191909152151560a0830152151560c090910152919050565b80356001600160a01b0381168114611ba257600080fd5b919050565b600080600080600060808688031215611bbf57600080fd5b611bc886611b8b565b9450611bd660208701611b8b565b935060408601359250606086013567ffffffffffffffff80821115611bfa57600080fd5b818801915088601f830112611c0e57600080fd5b813581811115611c1d57600080fd5b896020828501011115611c2f57600080fd5b9699959850939650602001949392505050565b60008083601f840112611c5457600080fd5b50813567ffffffffffffffff811115611c6c57600080fd5b6020830191508360208260051b8501011115611c8757600080fd5b9250929050565b60008060008060408587031215611ca457600080fd5b843567ffffffffffffffff80821115611cbc57600080fd5b611cc888838901611c42565b90965094506020870135915080821115611ce157600080fd5b50611cee87828801611c42565b95989497509550505050565b67ffffffffffffffff81168114611ac957600080fd5b600080600060608486031215611d2557600080fd5b8335611d3081611cfa565b9250611d3e60208501611b8b565b9150604084013590509250925092565b600060208284031215611d6057600080fd5b611d6982611b8b565b9392505050565b602081016116a78284611b14565b60008060408385031215611d9157600080fd5b50508035926020909101359150565b634e487b7160e01b600052603260045260246000fd5b634e487b7160e01b600052601160045260246000fd5b808201808211156116a7576116a7611db6565b600060018201611df157611df1611db6565b5060010190565b600060208284031215611e0a57600080fd5b8151611d6981611cfa565b634e487b7160e01b600052601260045260246000fd5b600082611e3a57611e3a611e15565b500690565b818103818111156116a7576116a7611db6565b600082611e6157611e61611e15565b50049056fea2646970667358221220de81806487612efd5be602d7d488cefbf18c54ac2235597b209f5052db2b3d9a64736f6c63430008140033","linkReferences":{}},"methodIdentifiers":{"ACTIVATION()":"8363f205","COMMUNITY_TREASURY()":"71f152bc","DEPLOYER()":"c1b8411a","ENTROPY_CONTRACT()":"fe5ad5f6","ENTROPY_PROVIDER()":"86297da6","PARTNERS()":"94b91f06","TEAM_LOCK()":"724c897c","_entropyCallback(uint64,address,bytes32)":"52a5f1f8","_isTeamWallet(address)":"ad1fca85","claimPrize()":"70740ac9","cumTickets(uint256)":"c8196685","drawDeadline()":"9dba4fe7","entropy()":"47ce07cc","finalizeSnapshot()":"24359cef","fulfillDraw()":"76e5c0f5","getDrawFee()":"680072d0","getEntropy()":"5404bbf7","getRaffleInfo()":"8166f6b2","getRaffleState()":"115cbaf5","getWalletTickets(address)":"ea9d944d","initSnapshot(uint256,bytes32)":"ff9aff5a","loadTicketsBatch(address[],uint256[])":"3da8cb64","onERC721Received(address,address,uint256,bytes)":"150b7a02","owner()":"8da5cb5b","prizeClaimed()":"9042bbf3","prizeDeposited()":"2f372916","prizeDepositor()":"505244fb","prizeNFT()":"e6c81c72","prizeTokenId()":"0b78824b","rawRandomNumber()":"213c949c","recoverPrize()":"8a48daca","requestDraw(bytes32)":"4feda510","reset()":"d826f88f","sequenceNumber()":"64ca23ef","setDrawDeadline(uint256)":"0641e9e3","snapshotBlock()":"1f90b2a5","snapshotHash()":"71e4237e","state()":"c19d93fb","totalTickets()":"dd11247e","wallets(uint256)":"7ad71f72","winner()":"dfbf53ae","winningTicket()":"c26eea54"},"id":0}